:100000000C94E3000C940B010C940B010C940B0169
:100010000C940B010C940B010C940B010C940B0130
:100020000C940B010C940B010C940B010C940B0120
:100030000C940B010C940B010C940B010C940B0110
:100040000C946F2C0C940B010C94CC290C941A2A50
:100050000C940B010C940B010C940B010C940B01F0
:100060000C940B010C940B010091E3720796E4755C
:100070000E9FED7C0998EA7B1C8DFF6E1B8AF86948
:100080001283F1601584F66738A9DB4A3FAEDC4D78
:1000900036A7D54431A0D24324B5C75623B2C051A8
:1000A0002ABBC9582DBCCE5F70E1930277E6940558
:1000B0007EEF9D0C79E89A0B6CFD8F1E6BFA881908
:1000C00062F3811065F4861748D9AB3A4FDEAC3D38
:1000D00046D7A53441D0A23354C5B72653C2B02168
:1000E0005ACBB9285DCCBE2FE0710392E776049518
:1000F000EE7F0D9CE9780A9BFC6D1F8EFB6A1889C8
:10010000F2631180F5641687D8493BAADF4E3CADF7
:10011000D64735A4D14032A3C45527B6C35220B127
:10012000CA5B29B8CD5C2EBF900173E2970674E5D7
:100130009E0F7DEC99087AEB8C1D6FFE8B1A68F987
:10014000821361F0851466F7A8394BDAAF3E4CDDB7
:10015000A63745D4A13042D3B42557C6B32250C1E7
:10016000BA2B59C8BD2C5ECF000000002400270028
:100170002A0000000000250028002B0000000000DD
:1001800023002600290004040404040404040202D9
:100190000202020203030303030301020408102006
:1001A0004080010204081020010204081020000011
:1001B0000007000201000003040600000000000028
:1001C0000000D001862B11241FBECFEFD8E0DEBF88
:1001D000CDBF12E0A0E0B1E0EAE2FCE502C005908C
:1001E0000D92A430B107D9F715E0A4E0B2E001C048
:1001F0001D92A837B107E1F711E0C6ECD1E004C0C9
:100200002297FE010E940F2EC23CD107C9F70E941F
:10021000DC2B0C94132E0C940000FB01DC018D915F
:10022000019080190110D9F3990B0895FB01DC01AD
:100230004150504030F08D910190801919F4002008
:10024000B9F7881B990B08952A9862606EBD0DB4AA
:1002500007FEFDCF4EBD0DB407FEFDCF2A9A0895CF
:100260002A986EBD0DB407FEFDCF1EBC0DB407FE6F
:10027000FDCF2A9A8EB50895EF92FF920F931F93A8
:10028000CF93DF938C01229A2A9A259A239A249855
:10029000229A80E58CBD81E08DBD2198C80168E877
:1002A00048E10E942401C80168E740E20E9424015D
:1002B000C80168E740E00E942401EE24FF24CFEF4C
:1002C000DFEF07C0C80168E60E943001219780FD7A
:1002D00009C00894E11CF11C2097A1F7EF2811F444
:1002E0008FEF57C0C80168ED41EC0E942401C8019E
:1002F00060ED40E60E942401C80168EE44E00E94DF
:100300002401C80168EE0E94300182FFFACFC801C3
:1003100068EF0E943001807C803489F0813418F4C9
:10032000882329F12BC0803819F0803C39F51BC097
:10033000C80168ED0E94300181FD07C00DC0C801F1
:1003400068ED0E94300181FD07C0C80168ED4BECEB
:100350000E94240183E008C0C80168ED49EC0E94B6
:10036000240182E001C081E08093BE0407C0C8017F
:1003700068ED41ED0E9424011092BE04C80168ECB2
:1003800040E20E942401C80160E841E00E9424018B
:1003900080E0DF91CF911F910F91FF90EF90089532
:1003A000EF92FF920F931F9304E012E0C8010E94A6
:1003B000B01F8BE7E82E82E0F82EC701B8010E943B
:1003C0008A0484E793E0B70140E051E02EE031E099
:1003D0000E9434151F910F91FF90EF900895CF93D5
:1003E000DF9384E092E00E94C228809182038823F8
:1003F00009F48AC184E793E00E94F715892B09F478
:1004000083C1C091BC04D091BD04C330D105DCF4DC
:1004100084E793E00E94FD16C854DB4F8883E09187
:10042000BC04F091BD04E854FB4F86E793E0608183
:100430000E94152C8091BC049091BD04019690936C
:10044000BD048093BC04E091BC04F091BD04E85469
:10045000FB4F108286E793E063E171E00E945C2C21
:100460008091BC049091BD04039709F04DC184E1D3
:1004700091E068EB74E00E940D01009751F48091C7
:100480008B0161E00E94B82D8DE495E064E171E09C
:1004900035C188E191E068EB74E00E940D0100979E
:1004A00051F480918B0160E00E94B82D8DE495E0BD
:1004B00068E171E023C18CE191E068EB74E00E9497
:1004C0000D01009751F480918D0161E00E94B82DDB
:1004D0008DE495E06CE171E011C180E291E068EBA0
:1004E00074E00E940D01009751F480918D0160E04D
:1004F0000E94B82D8DE495E060E271E0FFC084E2D7
:1005000091E068EB74E00E940D01009751F4809136
:100510008F0161E00E94B82D8DE495E064E271E006
:10052000EDC088E291E068EB74E00E940D01009755
:1005300051F480918F0160E00E94B82D8DE495E028
:1005400068E271E0DBC08CE291E068EB74E00E944D
:100550000D01009751F48091910161E00E94B82D46
:100560008DE495E06CE271E0C9C080E391E068EB56
:1005700074E00E940D01009751F48091910160E0B8
:100580000E94B82D8DE495E060E371E0B7C084E38C
:1005900091E068EB74E00E940D01009751F48091A6
:1005A000930161E00E94B82D8DE495E064E371E071
:1005B000A5C088E391E068EB74E00E940D0100970C
:1005C00051F48091930160E00E94B82D8DE495E094
:1005D00068E371E093C08CE391E068EB74E00E9403
:1005E0000D01009751F48091950161E00E94B82DB2
:1005F0008DE495E06CE371E081C080E491E068EB0C
:1006000074E00E940D01009751F48091950160E023
:100610000E94B82D8DE495E060E471E06FC084E441
:1006200091E068EB74E00E940D010097A1F48091C5
:100630008B0161E00E94B82D80918D0161E00E94E4
:10064000B82D80918F0161E00E94B82D8DE495E076
:1006500064E471E053C088E491E068EB74E00E94C8
:100660000D010097A1F480918B0160E00E94B82DEC
:1006700080918D0160E00E94B82D80918F0160E033
:100680000E94B82D8DE495E068E471E037C08CE4F9
:1006900091E068EB74E00E940D010097A1F4809155
:1006A000910161E00E94B82D8091930161E00E9468
:1006B000B82D8091950161E00E94B82D8DE495E000
:1006C0006CE471E01BC080E591E068EB74E00E948F
:1006D0000D010097A9F48091910160E00E94B82D6E
:1006E0008091930160E00E94B82D8091950160E0B7
:1006F0000E94B82D8DE495E060E571E00E94592CD0
:100700001092BD041092BC04DF91CF9108958091A6
:100710008B0161E00E944C2D80918D0161E00E946F
:100720004C2D80918F0161E00E944C2D80919101B0
:1007300061E00E944C2D8091930161E00E944C2D5C
:100740008091950161E00E944C2D8DE495E040E0A0
:1007500051EE60E070E00E94552A84E092E00E9431
:100760003C018F3F09F4FFCF08950895CF93DF93A5
:10077000FC01EB01DA018281882319F0813011F547
:1007800015C03483238381E0828310C02150304020
:1007900034832383888199810196998388838D91FD
:1007A0009C911197019711969C938E93238134818C
:1007B0002115310531F08D919C911197892B31F7DD
:1007C00001C0128220E083819481892B09F421E009
:1007D000822FDF91CF910895FC01ED5BFF4F808167
:1007E0000895FC01EE59FF4F8081089580E0603E3E
:1007F00009F481E00895FC018AE06C35780721F462
:1008000091E2483E590709F18485882379F485856A
:10081000882361F48685882349F48785882331F409
:100820008089882319F48189882389F06C54754064
:1008300071F492E04836590741F084E04F3258078E
:1008400021F080E0455D534019F481E0089580E097
:100850000895FF920F931F93CF93DF93EC01DC0178
:10086000AC5BBF4F20E030E01C92922F222311F0AE
:1008700080E001C088E011968C93119712961C922B
:100880001297992311F091E001C09FE0F901EE0F5A
:10089000FF1FE20FF31FEC0FFD1FEA5BFF4F990FE5
:1008A000990F80818370892B80832F5F3F4F139630
:1008B00024303105C9F68E010A5A1F4FFF24F80172
:1008C000A081B181109741F0ED91FC9111970480C6
:1008D000F581E02DCD010995F3940E5F1F4FF4E0F3
:1008E000FF1669F719AE1AAE1EAE1FAECD5BDF4F15
:1008F00018822E9681E08993188219821A821B82AF
:1009000061961882FE011292DF91CF911F910F9193
:10091000FF9008950F931F93CF93DF93EC018BE922
:1009200091E09983888348969B838A8319AE1BAE96
:100930001EAEC05CDF4F1882C054D0408E010F5BEA
:100940001F4FF80171836083CD5BDF4F18822E96B5
:1009500081E08993188219821A821B82609619920B
:1009600018822D9719921992199219921992199227
:1009700019821882CC55D040CE010E942904F8017A
:10098000A081B1811097C1F0FD01EA5AFF4F20E02C
:1009900030E080819181892B49F4255D3F4F220F02
:1009A000331FA20FB31FCD93DC9306C02F5F3F4FC1
:1009B00032962031310569F7DF91CF911F910F9168
:1009C0000895EF92FF920F9302970E94EB040F910C
:1009D000FF90EF900895EF92FF92CF93DF93DC01A9
:1009E000E701222309F040C0A05BBF4F6C93A055E4
:1009F000B0408B81282F30E0C9018370907003973D
:100A000061F48A8187FF09C0FD01E75BFF4F8081A8
:100A100083708460808391E009C021FF25C09A81A2
:100A2000991F9927991F83E0891B982F892F90E0A0
:100A3000FC01EE0FFF1FE80FF91FEA0FFB1FEC5B35
:100A4000FF4F8A818F7081938C818083EE80FD01BE
:100A5000ED59FF4F80818E1508F4E082FD01EF5AB9
:100A6000FF4F80818F5F8083DF91CF91FF90EF9068
:100A700008950F931F938C010E9429040F5B1F4F51
:100A8000D801ED91FD918D01A081B18114962D9138
:100A90003C911597CF01F8016081F901099580E03B
:100AA0001F910F9108958F929F92AF92BF92CF9214
:100AB000EF920F93DF93CF93CDB7DEB72B970FB69F
:100AC000F894DEBF0FBECDBFAC0185E0898380E125
:100AD000888781E0898782E08A8782E18B87DB01D2
:100AE000FE0132969E01285F3F4F8D918193E21760
:100AF000F307D9F700D000D000D0EDB7FEB731969C
:100B00004F5B5F4FDA018D919C9141545040A4E4BA
:100B1000AA2EB12CA40EB51E2BE030E0ADB7BEB7A7
:100B200012963C932E9311979E012F5F3F4F338374
:100B30002283158214824D5B5F4FFA016081D501DB
:100B40004C9121E209E0F5E0EF2EE3E0CE2EAA245D
:100B5000BB247BE0872E912C0E944F25EDB7FEB77A
:100B600036960FB6F894FEBF0FBEEDBF2B960FB6AC
:100B7000F894DEBF0FBECDBFCF91DF910F91EF9004
:100B8000CF90BF90AF909F908F9008958F929F923B
:100B9000AF92BF92CF92EF920F93DF93CF93CDB7E7
:100BA000DEB728970FB6F894DEBF0FBECDBFAC01FD
:100BB00081E089831A82DB01FE0133969E01275F63
:100BC0003F4F15968C91159781931197E217F30774
:100BD000C1F700D000D000D0EDB7FEB731964F5B23
:100BE0005F4FDA018D919C914154504064E4A62EF0
:100BF000B12CA40EB51E28E030E0ADB7BEB71296FA
:100C00003C932E9311979E012F5F3F4F3383228396
:100C1000158214824D5B5F4FFA016081D5014C91C2
:100C200021E209E055EFE52E33E0C32EAA24BB24D0
:100C3000B8E08B2E912C0E944F25EDB7FEB736966B
:100C40000FB6F894FEBF0FBEEDBF28960FB6F8940E
:100C5000DEBF0FBECDBFCF91DF910F91EF90CF9050
:100C6000BF90AF909F908F9008958F929F92AF9278
:100C7000BF92CF92EF920F93CF93DF93FC014A0183
:100C8000DC01A859BF4F8D919C9111978E7F8D9358
:100C90009C9300D000D000D0ADB7BEB71196EF5BEB
:100CA000FF4F80819181E154F0409F012C5B3F4FC9
:100CB000CDB7DEB75A83498313967C936E93129710
:100CC00015961C921E921497ED5BFF4F6081F901FF
:100CD000408120E200E0EE24CC24AA24BB240E9420
:100CE0004F258DB79EB706960FB6F8949EBF0FBEE0
:100CF0008DBFDF91CF910F91EF90CF90BF90AF90CC
:100D00009F908F900895FC01DC01A559BF4F84E2AC
:100D10008C93E459FF4F8CE0819383E0819384E0CE
:100D2000819388E081931082E057F040CF01BD01AC
:100D300046E050E00E9435060895FC01DC01A85908
:100D4000BF4F8D919C9111978B7F8D939C93DF0169
:100D5000A559BF4F86E08C93E459FF4F84E08193FF
:100D600083E0819361937F70719383E18083E05787
:100D7000F040CF01BD0146E050E00E9435060895E5
:100D8000FC01DC01A559BF4F81E18C93E459FF4F71
:100D900084E0819382E08083ED56F0408289E259BD
:100DA000FF4F8083EE56F04083898F70E159FF4FEB
:100DB0008083EF56F040CF01BD0145E050E00E9436
:100DC00035060895FC01DC01A559BF4F8CE08C93DA
:100DD000E459FF4F84E0819386E08083ED56F04034
:100DE0008489E259FF4F8083EE56F0408589E159AE
:100DF000FF4F8083EF56F0408689E059FF4F808394
:100E0000E057F0408789EF58FF4F8083E157F0406B
:100E1000808DEE58FF4F8083E257F040818DED5872
:100E2000FF4F8083E357F040CF01BD0149E050E020
:100E30000E9435060895FC01DC01A559BF4F8EE0E4
:100E40008C93E459FF4F84E0819386E08083ED56D4
:100E5000F0408489E259FF4F8083EE56F040858947
:100E6000E159FF4F8083EF56F0408689E059FF4FEC
:100E70008083E057F0408789EF58FF4F8083E15728
:100E8000F040808DEE58FF4F8083E257F040818D17
:100E9000ED58FF4F8083E357F040CF01BD0149E09B
:100EA00050E00E9435060895CF93DF93FC01DC01EA
:100EB000A859BF4F8D919C9111978D7F9E7F8D93E7
:100EC0009C93DF01A559BF4F85E08C93E459FF4FF8
:100ED00084E081938DE08193EB0188818193898106
:100EE00081938A8181938B8181938C8181938D8180
:100EF000819388E181938CEC819381E081931192BD
:100F0000119211921082EA57F040CF01BD0140E1E9
:100F100050E00E943506DF91CF910895BC016C5ED0
:100F20007F4F0E9454070895FC01DC01A559BF4F73
:100F300082E08C93E459FF4F84E081931082ED5658
:100F4000F040CF01BD0143E050E00E943506089516
:100F5000FC01DC01A859BF4F8D919C9111978F77AF
:100F60008D939C93DF01A559BF4F81E08C93E45989
:100F7000FF4F84E0819385E0819383E381938BE845
:100F800081938EE9819380E381938AE08083E257A5
:100F9000F040CF01BD0148E050E00E9435060895C1
:100FA000FC01DC01A859BF4F8D919C911197877F5F
:100FB0008D939C93DF01A559BF4F89E18C93E45930
:100FC000FF4F84E081938AE08083ED56F04084896E
:100FD000E259FF4F8083EE56F0408589E159FF4F7B
:100FE0008083EF56F0408689E059FF4F8083E057B9
:100FF000F0408789EF58FF4F8083E157F040808DA4
:10100000EE58FF4F8083E257F040818DED58FF4F3F
:101010008083319681E08193119211921082E7577B
:10102000F040CF01BD014DE050E00E94350608952B
:10103000FC01DC01A859BF4F8D919C9111978D7FC8
:101040008D939C93DF01A559BF4F89E08C93E459A0
:10105000FF4F84E0819387E08083ED56F0408489E0
:10106000E259FF4F8083EE56F0408589E159FF4FEA
:101070008083EF56F0408689E059FF4F8083E05728
:10108000F0408789EF58FF4F8083E157F040808D13
:10109000EE58FF4F8083E257F040818DED58FF4FAF
:1010A000808331961082E457F040CF01BD014AE0C1
:1010B00050E00E9435060895FC01DC01A559BF4FA0
:1010C00081E08C93E459FF4F80E181931082ED56CB
:1010D000F040CF01BD0143E050E00E943506089585
:1010E000FC01DC01A559BF4F89E08C93E459FF4F07
:1010F00080E181931082ED56F040CF01BD0143E0C5
:1011000050E00E9435060895DC01FC01E859FF4FCC
:10111000808191818F7E91838083A559BF4F8AE121
:101120008D938CE08D9381E08C93AD56B0401896F2
:101130008D919C911997FD01E259FF4F892B11F078
:1011400083E001C082E08083CD01A559BF4FBD017E
:1011500044E050E00E9435060895FC01E859FF4F35
:1011600011821082E856F040DF01A559BF4F83E09D
:101170008C93E459FF4F8CE081931082ED56F04040
:10118000CF01BD0143E050E00E94350608956F9203
:101190007F928F929F92AF92BF92CF92DF92EF9207
:1011A0000F931F93DF93CF93CDB7DEB74C016DB68E
:1011B0007EB6C22EDD2488E090E0C80ED91EEDB7C1
:1011C000FEB7EC19FD090FB6F894FEBF0FBEEDBFD8
:1011D000ADB6BEB60894A11CB11C61837F7070626D
:1011E000F50171832C5F228324506CEF7FEFC60ED4
:1011F000D71E8D2D992787FD9A95C60ED71E8383FE
:10120000248315820683E782D50120E030E0B60111
:1012100009C0FA01E20FF31F808117968C9317978C
:101220002F5F3F4F11962617370798F394012D5BD8
:101230003F4FD401A35BBF4F88E090E0C80ED91E9A
:10124000E1E4F0E08E0E9F1EF40180819181F901AE
:1012500060814C91960185010E941825882331F008
:1012600064E670E080E090E00E94EB2C0FB6F8940A
:101270007EBE0FBE6DBECF91DF911F910F91EF909B
:10128000DF90CF90BF90AF909F908F907F906F90A6
:101290000895EF920F93FC01DC01A551BF4F8BE045
:1012A0008C93E451FF4F419388E0819311922193F5
:1012B0000193119211921192119211921082E65F94
:1012C000F040CF01AD012CE001E0EE240E94C70800
:1012D0000F91EF900895EF920F931F93CF93DF93A9
:1012E000FC01D90198018C0105511F4F87E0E801ED
:1012F0008883E451FF4F419384E0819311928C9154
:10130000819311968C918193D9018C91819311963F
:101310008C918083E25FF040CF01A80128E001E0DA
:10132000EE240E94C708DF91CF911F910F91EF909B
:101330000895EF920F931F93CF93DF93FC01D90190
:1013400098018C0105511F4F86E0E8018883E45124
:10135000FF4F419384E0819311928C918193119678
:101360008C918193D9018C91819311968C9180837A
:10137000E25FF040CF01A80128E001E0EE240E94E6
:10138000C708DF91CF911F910F91EF900895EF92D1
:101390000F93CF93DF93FC01D9019C0125513F4F5F
:1013A00085E0E9018883E451FF4F41938AE081930E
:1013B00011928C91819311968C918193119211923B
:1013C0001192119281E0819392E0919380EA81934E
:1013D0009083E85FF040CF01A9012EE001E0EE2408
:1013E0000E94C708DF91CF910F91EF900895EF927F
:1013F0000F93CF93DF93FC01D9019C0125513F4FFF
:1014000084E0E9018883E451FF4F419388E08193B0
:1014100011928C91819311968C91819311921192DA
:1014200081E0819382E081938FEF81938083E65FF7
:10143000F040CF01A9012CE001E0EE240E94C70892
:10144000DF91CF910F91EF900895EF920F931F933B
:10145000CF93DF93FC01D90198018C0105511F4FF7
:1014600083E0E8018883E451FF4F419388E0819352
:1014700011928C91819311968C918193D9018C91C9
:10148000819311968C918193E19211921192108225
:10149000E65FF040CF01A8012CE001E0EE240E94BD
:1014A000C708DF91CF911F910F91EF900895CF93CF
:1014B000DF93EC01C559DF4F8DE0899384E0899378
:1014C00087E18883CD56D0408C89C259DF4F88830D
:1014D000CE56D0408D89C159DF4F8883CF56D0403A
:1014E0008E89C059DF4F8883C057D0408F89CF582D
:1014F000DF4F8883C157D040888DCE58DF4F888317
:10150000C257D040898DCD58DF4F8883C357D04014
:101510008BAD9E012C583F4F882339F186E0D901CD
:101520008C938DAD882381F0FE0190E08485EB588B
:10153000FF4F80839F5FE457F0409630B9F7FE017C
:10154000E558FF4F80E10CC0FE0190E08489EB5824
:10155000FF4F80839F5FE457F0409630B9F7EFCF9D
:1015600011928F5F8A31E1F730C0AA85BB85FD01FA
:1015700001900020E9F73197EA1BFB0BD901EC93AE
:1015800040E00BC0FE01E20FF31FEB58FF4F820F4C
:10159000931FDC018C9180834F5F242F30E08A857C
:1015A0009B85FC0101900020E9F73197E81BF90BBE
:1015B0002E173F0738F307C0FE01E40FF11DEB586B
:1015C000FF4F10824F5F4031B8F3CE01C559DF4F56
:1015D000BE014AE150E00E943506DF91CF910895A7
:1015E000CF93DF93EC01C559DF4F83E189938CE002
:1015F0008993FB0101900020E9F7E61BE883CD56B3
:10160000D04020E008C0A259BF4F860F971FFC01B1
:1016100080818C932F5F822F90E0FB01019000204E
:10162000E9F73197E61BF70BDE01A80FB91F8E17FC
:101630009F0748F3A259BF4F1C92DB010D90002079
:10164000E9F7A61BB70B1396CE01C559DF4FBE01B4
:10165000AD010E943506DF91CF910895AF92BF9200
:10166000DF92EF92FF920F931F93DF93CF9300D0FF
:10167000CDB7DEB77C0180E490E09A838983BBEA32
:10168000AB2EB12CAE0CBF1CF701EF5BFF4FD701A7
:10169000AD5BBF4F9701265B3F4F808191816C917D
:1016A000F90140819E012F5F3F4F85010E94A623D3
:1016B000882329F087010A5A1F4FFF2419C0870188
:1016C0000A5A1F4FDD24F801A081B181109749F01B
:1016D000ED91FC9111970190F081E02DCD01B501C4
:1016E0000995D3940E5F1F4FF4E0DF1661F7E2CF48
:1016F000F801A081B181109741F0ED91FC91119713
:101700000280F381E02DCD010995F3940E5F1F4F08
:10171000F4E0FF1669F70F900F90CF91DF911F91C2
:101720000F91FF90EF90DF90BF90AF900895EF92F0
:10173000FF920F931F93CF93DF93EC0114E6E12EFA
:10174000F12CE80EF91ED7018C91873009F4BDC049
:10175000883098F4833009F480C0843038F48130C4
:1017600009F440C0823008F06AC020C0853009F416
:1017700093C0863008F097C07CC08B3009F4F0C06D
:101780008C3038F4893009F4BCC08A3008F0CBC002
:10179000ACC08D3009F436C18D3008F4F2C08F3002
:1017A00009F43FC1803109F070C14CC18E010B5961
:1017B0001F4FF801208131812F5F3F4F31832083FC
:1017C000C959DF4F8881C756D04090E082179307F0
:1017D00008F05BC1CE010E94AD0881E0D7018C9377
:1017E000F8012AC0FE01EB59FF4F208131812F5FA4
:1017F0003F4F31832083C859DF4F8881C856D0407E
:1018000080FF09C01182108282E0D7018C93CE0143
:101810000E9483063AC1DE01A959BF4F4C91842F23
:1018200090E08217930708F030C18AE0489FC0011A
:1018300011248C93D7011C921182108226C1C859A1
:10184000DF4F8881C856D04080FF1FC183E0F70179
:101850008083CE010E94700818C1C859DF4F88816B
:10186000C856D04085FF11C1CE010E945C0884E0BB
:10187000E6C0C859DF4F8881C856D04086FF05C1F1
:10188000688579856115710529F0CE010E94F00AFD
:1018900085E0C4C086E0D3C0C859DF4F888180FF8F
:1018A000F4C086E0BBC0C05CDF4F8881C054D0402C
:1018B000882321F48BAD882309F4C0C0CE010E9497
:1018C000A807CC59DF4F87E0DFC0C859DF4F8881B8
:1018D000C856D04087FFD9C0CE010E9494078CAD76
:1018E000882309F045C088E0AAC0C859DF4F888125
:1018F000C856D04080FFC9C0CE010E948E0789E043
:101900008DC0C859DF4F88819981C856D04090FF5B
:10191000BCC081FF04C0CE010E94C0068FC0CE01B2
:101920000E948E07B2C089AD882309F0AEC08BAD8E
:10193000882309F0AAC08EAD882309F0A6C0C05C38
:10194000DF4F8881C054D040882309F09EC0CE016B
:101950000E94840881E08C83CC59DF4F8BE094C0D7
:10196000C859DF4F8881C856D04084FF06C01C820A
:10197000CE010E94D0078CE051C082FF86C080E17A
:101980005EC0C859DF4F8881C856D04083FF7DC0F4
:101990008E01065E1F4FC80164E571E048E050E02B
:1019A0000E9416010097E9F4FF24F394FAAEC801EF
:1019B0006DE571E046E150E00E941601009711F4D8
:1019C000FCAE0FC0C80164E771E046E150E00E9440
:1019D0001601009721F481E08CAF8DAF02C01CAEE0
:1019E0001DAE8BAD882339F08CAD882321F0CC5906
:1019F000DF4F88E049C0CE010E941808CC59DF4F64
:101A00008DE042C0FE01E859FF4F808181FF3DC05B
:101A10001D821E821F82118210828FE0F701808357
:101A200034C0FE01EB59FF4F808191810196918373
:101A30008083895E934048F1118210828AE0D70149
:101A40008C9323C0FE01E859FF4F808182FF1DC0A7
:101A500011821082FE01E559FF4F80E011928F5FE5
:101A60008034E1F7FE01E555FF4F80E011928F5F72
:101A70008034E1F719AE1AAE1BAE1EAE1FAEC05CCD
:101A8000DF4F1882A4968AE08883DF91CF911F915F
:101A90000F91FF90EF9008958F929F92AF92BF9217
:101AA000CF92DF92EF92FF920F931F93DF93CF932A
:101AB00000D0CDB7DEB77C0180E490E09A838983C3
:101AC000F701EF5BFF4FD701AD5BBF4F9701295B7C
:101AD0003F4F870105591F4F808191816C91D9013A
:101AE0004C919E012F5F3F4F0E94A623882319F03F
:101AF000843009F03EC2EBE6F0E0EE0EFF1ED701A7
:101B00008C91E5E9FFEFEE0EFF1E853009F495C1DB
:101B1000863080F4823009F4CAC0833020F48130EA
:101B200009F027C27CC0833009F448C1843009F031
:101B300020C2BAC18E3081F08F3038F4863009F47B
:101B4000F9C1873009F015C28FC1863109F4DBC1B4
:101B5000873109F00EC2EAC120E730E0E20EF31E41
:101B6000D7018C91E0E9FFEFEE0EFF1E882309F00C
:101B700000C2F701E859FF4F20813181C90181601E
:101B8000918380834EE650E0E40EF51ED7018C91E0
:101B900042E95FEFE40EF51E8130F1F46FE670E08C
:101BA000E60EF71ED7018C9141E95FEFE40EF51EBA
:101BB000803109F0DEC161E770E0E60EF71ED70163
:101BC0008C914FE85FEFE40EF51ED701D8968C9309
:101BD000216431832083CDC1893009F0CAC1EFE689
:101BE000F0E0EE0EFF1ED7018C91E1E9FFEFEE0E63
:101BF000FF1E803109F0BDC1F70190E0EF58FF4FA3
:101C00008081E157F04084879F5F31969630B1F72D
:101C1000F701E859FF4F80819181806222C12AE655
:101C200030E0E20EF31ED7018C91E6E9FFEFEE0EF5
:101C3000FF1E8530A8F1D701DB968C91882361F4D3
:101C4000E0E4F0E0EE0EFF1ED7018C91E0ECFFEF38
:101C5000EE0EFF1E882321F12AE630E0E20EF31E8D
:101C6000D7011C92E6E9FFEFEE0EFF1ED701D996D1
:101C70001C92D997DB961C92DB97DE961C92E0E4CF
:101C8000F0E0EE0EFF1ED7011C92E4E2F0E0EE0E53
:101C9000FF1E8AE0D7018C93ECE9FFEFEE0EFF1EEA
:101CA000F701E659FF4F80818F5F808362C1F701A2
:101CB000E359FF4F8081882309F45BC110E04F0195
:101CC000E0E4AE2EB12CAE0CBF1C78E6C72ED12CB2
:101CD000CE0CDF1C6DC0412F50E0CA01880F991F48
:101CE000840F951F220F220F220F280FF701E20FFA
:101CF000F11DE159FF4F71916191E081D701DB96B0
:101D00008C91DB97882381F1EE2371F5862F857006
:101D100059F1272F30E0C9018C709070892B21F187
:101D200073FF04C081E0DC968C9302C0F70114AE0F
:101D3000FA01EE0FFF1FE40FF51FEE0FFF1FE25930
:101D4000FF4FEE0DFF1DD70190E0819154968C93CB
:101D500054979F5F11969630C1F7F701E859FF4FEE
:101D60008081918180687DC0D5018C918823F9F0B4
:101D70006570E9F0707CD9F0FA01EE0FFF1FE40FF7
:101D8000F51FEE0FFF1FE259FF4FEE0DFF1DD701AC
:101D900090E0819154968C9354979F5F1196963062
:101DA000C1F7F601808191818068918380831F5FF4
:101DB000D4012C91121708F48ECFDBC0F701E8593B
:101DC000FF4F40815181CA019160918380832DE64C
:101DD00030E0E20EF31ED7018C9123E93FEFE20ED3
:101DE000F31E8823F1F46FE670E0E60EF71ED701CC
:101DF0008C9190E08F709070982F88272E917D01A4
:101E000062E97FEFE60EF71E30E0822B932BD701BD
:101E100053969C938E9352974260516051834083B6
:101E2000A8C0E4E6F0E0EE0EFF1E86E0D7018C933A
:101E3000ECE9FFEFEE0EFF1E9CC02DE630E0E20E57
:101E4000F31ED7018C91E3E9FFEFEE0EFF1E88230E
:101E500009F08FC0F701E859FF4F808191818460BC
:101E60008D7F9183808385C02DE630E0E20EF31EE6
:101E7000D7018C91E3E9FFEFEE0EFF1E882309F0F6
:101E800078C0F70190E0EC58FF4F8081E457F040B4
:101E9000828F9F5F31969E31B1F7F701E859FF4F6E
:101EA000808191818860DDCFF70190E0E359FF4F99
:101EB0008081ED56F040848B9F5F31969630B1F76C
:101EC00024E730E0E20EF31ED7018C91ECE8FFEF3F
:101ED000EE0EFF1E857081F023E730E0E20EF31E68
:101EE000D7018C91EDE8FFEFEE0EFF1E807C21F014
:101EF00081E0D701DF968C93F701E859FF4F80818D
:101F000091818061AECFF70183AD882339F4D70189
:101F10001A968D919C911B97892B21F0C7010E94E5
:101F2000570A27C0C7010E941B0723C0C7010E9490
:101F3000E2061FC0F70183AD882331F081AD88230D
:101F400019F481E081AF15C020E430E0E20EF31E09
:101F5000D7018C91E0ECFFEFEE0EFF1E882349F0D5
:101F6000D701DE968C91DE97882319F481E0DE9606
:101F70008C93C7010E94970B0F900F90CF91DF9128
:101F80001F910F91FF90EF90DF90CF90BF90AF9097
:101F90009F908F900895CF92DF92EF92FF920F93D0
:101FA0001F93CF93DF93EC01CE59DF4F8881C25648
:101FB000D040882339F1F2E5CF2ED12CCC0EDD1E96
:101FC000F601E080F180028113810E94B72C6E152A
:101FD0007F0580079107B0F00E94B72CCD59DF4FE5
:101FE0002881C356D040620F711D811D911DF601DD
:101FF0006083718382839383CE010E944C0DCE0156
:102000000E942E0B80E0DF91CF911F910F91FF90E6
:10201000EF90DF90CF9008952F923F924F925F9272
:102020006F927F928F929F92AF92BF92CF92DF92E8
:10203000EF92FF920F931F93DF93CF93CDB7DEB74D
:10204000C955D0400FB6F894DEBF0FBECDBF6C01AE
:10205000022FFC01E95BFF4F208162962FAF629750
:10206000108271E4672E712C680E791ED301ED90F9
:10207000FC90D701ED91FC9163E4862E912C880EA3
:10208000991E0190F081E02DC701D4016C91099552
:102090005C01009709F4D8C16CE271E080E090E047
:1020A0000E94EB2CF3018081918160E040E0D4013B
:1020B0002C910E947C26182F882319F0F501148298
:1020C000BAC1D50114961C92D701ED91FC910190F3
:1020D000F081E02DC701D4016C910995FC010097B6
:1020E00009F4B2C10483F601EC5BFF4F6496FFAFC5
:1020F000EEAF6497D3018D919C91F401608141E032
:1021000064962EAD3FAD64970E94DC1F182F882384
:1021100009F091C120E630E0C20ED31ED6018D91A8
:102120009C91E0EAFFEFCE0EDF1E8C54954081F1CA
:1021300052E0252E312C2C0C3D1CFF249601205AF8
:102140003F4F66963FAF2EAF669749E3842E912CA2
:102150008C0E9D1E31E4432E512C4C0C5D1C23E44F
:10216000622E712C6C0C7D1CC601825A9F4F6896A2
:102170009FAF8EAF689791E1A92EB12CAC0EBD1E1A
:10218000D601AF5ABF4F6A96BFAFAEAF6A97F0C0E5
:10219000EEE5F0E0CE0EDF1ED6018D919C91E2EAD5
:1021A000FFEFCE0EDF1EF2E088369F0741F024E0FD
:1021B0008F32920721F0855D934009F0B9CF64E634
:1021C00070E080E090E00E94EB2CF601EF5BFF4FA7
:1021D000D601AD5BBF4F96012C5B3F4F8081918153
:1021E0006C91D9014C9121E00E944A26182F882336
:1021F00009F021C1F6018485882379F48585882337
:1022000061F48685882349F48785882331F48089A1
:10221000882319F481898823F9F02EE530E0C20E75
:10222000D31ED6018D919C91E2EAFFEFCE0EDF1E08
:10223000F2E088369F0719F08F52944039F4B601C6
:10224000645F7F4FC6010E94C60506C0B601645F89
:102250007F4FC6010E94530586010F5B1F4F83E429
:10226000E82EF12CEC0CFD1CF601EC5BFF4FD801C5
:102270008D919C91D7016C91408120E00E944A266B
:10228000F80180819181D7016C9140E020E00E94AB
:102290007C26D601ED91FC910480F581E02DC601EC
:1022A000099511EDD2C06696EEADFFAD66978081BF
:1022B00091818C559A4049F56896AEADBFAD68974F
:1022C0008D919C91885E914201F5E9EBF1E0FA83F2
:1022D000E9833C822B821E8619A21AA21BA2BF820E
:1022E000AE82B986A8868D818B878A87BD86AC86AB
:1022F000188A1F86D2018D919C91F301608140E084
:102300002F2D8E010F5F1F4F25C02FEB31E03AA715
:1023100029A73CA62BA61EAA2A961FAE2A972B9663
:102320001FAE2B972C961FAE2C979FA68EA699AA10
:1023300088AA8DA58BAB8AAB9DAA8CAA18AE1FAAC2
:10234000D2018D919C91F301608140E02F2D8E018F
:10235000075D1F4F0E942727182F882309F06BC0A5
:102360006A96AEADBFAD6A978C91843038F4F39421
:102370006296BFAD6297FB1608F495CFE1E5F0E0F9
:10238000CE0EDF1ED6014C91EFEAFFEFCE0EDF1E20
:10239000B1E4EB2EF12CEC0CFD1CA3E4AA2EB12C25
:1023A000AC0CBD1C4430E8F1D7018D919C91F50136
:1023B000608164962EAD3FAD64970E94DC1F182F9C
:1023C0008823C9F596012C5B3F4FD601A05BBF4F18
:1023D000F70180819181F5016081F90140812C91A3
:1023E0000E944A26182F882331F527E630E0C20ED6
:1023F000D31E84E6D6018C93F60112921292DF016D
:102400001E926D01ECE9FFEFCE0EDF1ED601149691
:102410001C92E2E6F0E0CE0EDF1E81E0D6018C9346
:1024200014C0F70180819181D5016C9140E020E0DA
:102430000E947C2611EDD601ED91FC910480F5817E
:10244000E02DC601099501C016ED812FC75ADF4F57
:102450000FB6F894DEBF0FBECDBFCF91DF911F91B5
:102460000F91FF90EF90DF90CF90BF90AF909F9033
:102470008F907F906F905F904F903F902F90089536
:10248000EF92FF920F931F93CF93DF93EC017B01A9
:102490008A0188A1823049F1833030F4882351F0D9
:1024A000813009F0A3C010C0833029F1843009F0D5
:1024B0009DC03DC082E08C832D813E8138872F8373
:1024C0008A87898781E088A3CE010796B701A80192
:1024D0000E94EB14882309F48BC0ED81FE8180817A
:1024E00089A381818AA382E088A3CE0142969E833C
:1024F0008D8383E088A38AA1843051F0853018F45D
:10250000823061F406C0853041F0813239F403C075
:102510001BA287E002C089A182508C838D819E819D
:1025200098878F838C818A87898784E088A38AA192
:10253000843089F0853059F1823009F046C0CE01EF
:102540000796B701A8010E94EB14882309F450C034
:102550008D898CA346C0CE010796B701A8010E94C1
:10256000EB14882309F444C0FE01709685818F3FE7
:10257000C1F586818130A9F58781813091F58BA3E2
:1025800082818EA383818FA387818DA32AC0CE01F0
:102590000796B701A8010E94EB14882349F18BA18B
:1025A0008823F9F08A819B810097D9F0DC01ED91B5
:1025B000FC91DE0150960190F081E02D6CA14EA1BE
:1025C0002FA10DA17D0109950CC029A130E0225059
:1025D0003040CE010B96B701A8010E94B6038823B4
:1025E00039F0CE0140969E838D8318A281E001C010
:1025F00080E0DF91CF911F910F91FF90EF900895B0
:10260000CF92DF92EF92FF920F931F93DF93CF93BE
:1026100000D000D0CDB7DEB78C017A8369835C83AC
:102620004B83E3E0CE2ED12CCC0EDD1E7E01089430
:10263000E11CF11C07C0C801B601A7010E944012AD
:10264000882321F089819A81892BA9F70F900F9017
:102650000F900F90CF91DF911F910F91FF90EF900E
:10266000DF90CF900895EF92FF920F931F93CF9337
:10267000DF93EC017B018A0188A1823049F183302C
:1026800030F4882351F0813009F0A3C010C08330AA
:1026900029F1843009F09DC03DC082E08C832D81FA
:1026A0003E8138872F838A87898781E088A3CE017E
:1026B0000796B701A8010E94EB14882309F48BC088
:1026C000ED81FE81808189A381818AA382E088A334
:1026D000CE0142969E838D8383E088A38AA18430B5
:1026E00051F0853018F4823061F406C0853041F035
:1026F000813239F403C01BA287E002C089A1825055
:102700008C838D819E8198878F838C818A8789872E
:1027100084E088A38AA1843089F0853059F1823021
:1027200009F046C0CE010796B701A8010E94EB143C
:10273000882309F450C08D898CA346C0CE0107962A
:10274000B701A8010E94EB14882309F444C0FE01DC
:1027500070968581803EC1F586818130A9F587819B
:10276000813091F58BA382818EA383818FA3878192
:102770008DA32AC0CE010796B701A8010E94EB14D1
:10278000882349F18BA18823F9F08A819B810097E6
:10279000D9F0DC01ED91FC91DE0150960190F081C1
:1027A000E02D6CA14EA12FA10DA17D0109950CC0BA
:1027B00029A130E022503040CE010B96B701A8018C
:1027C0000E94B603882339F0CE0140969E838D8304
:1027D00018A281E001C080E0DF91CF911F910F919D
:1027E000FF90EF900895CF92DF92EF92FF920F93B8
:1027F0001F93DF93CF9300D000D0CDB7DEB78C010D
:102800007A8369835C834B83F3E0CF2ED12CCC0E8B
:10281000DD1E7E010894E11CF11C07C0C801B60151
:10282000A7010E943313882321F089819A81892B83
:10283000A9F70F900F900F900F90CF91DF911F91FC
:102840000F91FF90EF90DF90CF9008952F923F92DD
:102850004F925F926F927F928F929F92AF92BF92B0
:10286000CF92DF92EF92FF920F931F93DF93CF935C
:10287000CDB7DEB762970FB6F894DEBF0FBECDBFFF
:102880007C01362E242E922E0E94290487010F5B94
:102890001F4FD801AD90BC90A3E44A2E512C4E0C92
:1028A0005F1CF2018081882311F019ED7AC0D501F7
:1028B000ED91FC910190F081E02DC50160E009955A
:1028C0006C01009711F416ED6CC0FC016080718002
:1028D0006114710411F417ED64C084E490E0E80E13
:1028E000F91ED6011196FC92EE92ECEBFFEFEE0E84
:1028F000FF1E14969C92D8018D919C9160E040E05F
:1029000022E130E04E010894811C911C84010E9458
:102910009427182FF601718260828823B9F5D501BA
:10292000ED91FC910280F381E02DC501632D40E023
:10293000222D0995F2018083882311F414ED31C012
:1029400085E490E0E80EF91ED40117968C91179754
:10295000F701808382E090E0E80EF91E51968C9199
:10296000D7018C93E9E1F0E0EE0EFF1ED40118963A
:102970008D919C911997F701918380831A968D917F
:102980009C911B979293829310EE0BC08D3009F0AF
:1029900011EED701ED91FC910480F581E02DC70186
:1029A0000995812F62960FB6F894DEBF0FBECDBF9A
:1029B000CF91DF911F910F91FF90EF90DF90CF901B
:1029C000BF90AF909F908F907F906F905F904F904F
:1029D0003F902F900895CF93DF93EC019A01888167
:1029E0009981892BF9F42BC08B8190E0841B91098C
:1029F000E881F981E80FF91FDB018D919C91DC01E1
:102A00008C9180838A8181508A83F90180819181B0
:102A1000019791838083DB018D919C9111970196A1
:102A20008D939C934A81442331F0F90180819181F7
:102A3000892BD1F604C08B818A8381E001C080E0BC
:102A4000DF91CF910895FC011686128A118AEA5807
:102A5000FF4F1082E657F040158A168A108E178AAB
:102A6000E05CFE4F10820895CF93DF93EC011D824E
:102A70001C8288EE93E0A0E0B0E08E839F83A8875D
:102A8000B98785EC91E09983888348969B838A83F4
:102A9000788B6F8761157105B9F0DB01AA5ABF4FBA
:102AA000E0E0F0E08D919C911197892B41F4BB9669
:102AB000EE0FFF1FE60FF71FD183C08305C03196CD
:102AC0001296E430F10571F7EF85F8895187408758
:102AD00033872287CB59DF4F80E58993188223966D
:102AE00081E589931882CA56D040CE010E942315F1
:102AF000DF91CF910895DB0111968C911197282FCA
:102B000030E0C9018F7E9070EC918F3E910569F4A1
:102B1000E095F0E0E859FF4FE491F0E0E227F32779
:102B2000E859FF4F849180950895E095F0E0E859C9
:102B3000FF4FE491F0E0E227F327E859FF4FE491DB
:102B4000F0E012968C9190E0E827F927E859FF4FC2
:102B5000849180950895DB01EC91E095F0E0E859CF
:102B6000FF4FE49111968C911197F0E090E0E827E7
:102B7000F927E859FF4FE4918F7E90708F3E9105C1
:102B800049F0F0E012968C9190E0E827F927E85997
:102B9000FF4FE491F0E0842F90E0E827F927E8590F
:102BA000FF4FE49180E0EF3C09F481E00895029743
:102BB0000E94DB150895DF93CF930F92CDB7DEB758
:102BC000FC016983A081B18152962D913C9153976C
:102BD000BE016F5F7F4F41E050E0F90109950F9012
:102BE000CF91DF91089502970E94F7150895FC0197
:102BF000EF5BFE4F808190E0089502970E940116DE
:102C00000895FC01EF5BFE4F8081E154F140882381
:102C100019F42FEF3FEF05C0E858FF4F8081282FB0
:102C200030E0C9010895EF92FF920F93FC01DB01A0
:102C3000242F6389748938E6E32EF12CE80EF91EFF
:102C400087859089AD01E959FF4F0081F701E08048
:102C50000E94C7080F91FF90EF900895AF92BF9226
:102C6000DF92EF92FF920F931F93CF93DF93EC01CC
:102C70008E85882309F447C0FE01E05CFE4F808109
:102C8000882309F440C0C359DF4F8881CD56D04016
:102C90008160898F8FEE8A8F49E1A42EB12CAC0E12
:102CA000BD1EDD247F012BC0042F4D3308F00CE343
:102CB000802F880F81608B8FED2DF0E0E452FF4F65
:102CC000EC0FFD1FDE0110E081915C968C935C9708
:102CD0001F5F11961017C0F3CE01B5010E947B153E
:102CE000FE01E10FF11D848F402F4C5FCE01B50135
:102CF0000E941316F7018081801B8083D00EF7019C
:102D00004081442389F6DF91CF911F910F91FF906D
:102D1000EF90DF90BF90AF90089502970E949116B8
:102D200008950E942E16089502970E9498160895FD
:102D30008F929F92BF92CF92DF92EF92FF920F936A
:102D40001F93CF93DF937C014B016A01BB248C015D
:102D5000005C1E4F16C0F8018081843618F0C70150
:102D60000E942E16F8018081F701E80FF11DE45250
:102D7000FF4FC80DD91D988190838F5FF801808324
:102D8000B394CB2DD0E0CC15DD0528F3C601DF913F
:102D9000CF911F910F91FF90EF90DF90CF90BF9058
:102DA0009F908F900895AF92BF92CF92EF920F9322
:102DB0001F935C01462B422B4160FC01418FE02AAE
:102DC000E28E81E0838FC48E8501075E1F4FC501AF
:102DD000B8010E947B15F501858FC501B80145E05A
:102DE0000E9413161F910F91EF90CF90BF90AF905C
:102DF000089502970E94FD160895CF92EF920F93C7
:102E00001F93CF93DF93DC01EC01CF5BDE4F888112
:102E1000882319F42FEF3FEF31C0A858BF4F1C9102
:102E2000A857B04091E09E0108C0FD01E90FF11DD7
:102E3000E858FF4F808182939F5FF9018081981746
:102E4000A0F381508883FD01ED5BFE4F80818F5F91
:102E50008083803688F01082FD01E259FF4FCD015A
:102E6000A359BF4F6C91408120E00FEE70E1E72E37
:102E700054E6C52E0E94D316212F30E0C901DF9100
:102E8000CF911F910F91EF90CF900895AF92CF9275
:102E9000DF92EF92FF920F931F93CF93DF93EC019A
:102EA000462B422B4160498FE02AEA8EEA2CFF2410
:102EB000C701880F991F81608B8FDE01F60104C066
:102EC00081915B968C935B9711968E2F8C198A1546
:102ED000B8F38E01075E1F4FCE01B8010E947B152B
:102EE000EC0EFD1EF701848FF4E0AF0ECE01B801A9
:102EF0004A2D0E941316DF91CF911F910F91FF90E1
:102F0000EF90DF90CF90AF900895EF92FF920F93E4
:102F1000FC01DB01242F6389748904E6E02EF12C87
:102F2000E80EF91E87859089AD01ED59FF4F0081AC
:102F3000F701E0800E94C7080F91FF90EF9008957D
:102F4000FC0187E0818F628F438F148E8CE1858F27
:102F5000168E89E1878F21E020A399E091A312A228
:102F600086E083A385E384A395A396A385E687A340
:102F70008EE680A791A712A68AE683A794A725A725
:102F800016A697A720AB11AA85E282AB85E083AB9A
:102F900084E584AB8BE485AB8AE486AB83E587ABC1
:102FA00080E580AF11AECF017996BF0141E20E946A
:102FB00085170895FC0187E0818F628F438F148EFF
:102FC0008BE2858F168E86E2878F96E390A311A2FF
:102FD0008CE382A393A314A289E385A349E046A3CB
:102FE00017A210A68AE081A712A621E023A714A6A3
:102FF00086E085A746A717A620AB95E391AB53E0E3
:1030000052AB39E133AB81E184AB25AB46AB17AAB8
:1030100084E080AF91AF8CE082AF93AF54AF35AF17
:1030200026AF17AEE05CFF4F919385E0819331931B
:103030001192519388E0819382E0819311923083C1
:10304000E854F040CF017996BF0140E30E94851714
:103050000895FC0187E0818F628F438F148E85E095
:10306000858F168E82E0878F85E380A311A212A23E
:10307000CF017996BF014AE00E94851708958F928B
:103080009F92AF92BF92CF92DF92EF920F931F93D6
:10309000CF93DF93EC018E89813009F450C08130E9
:1030A00038F0823009F462C0833009F08DC070C0FE
:1030B0008F89988D81FF88C08D7F988F8F8B29E6AF
:1030C000822E912C8C0E9D1E97E6A92EB12CAC0E53
:1030D000BD1E6B897C898BE6C82ED12CCC0EDD1EE3
:1030E0008F859889F601408194018501EE24E3944F
:1030F0000E94250A61E070E080E090E00E94EB2CE5
:103100006B897C898F859889F60140819401EE2432
:103110000E94250AF60180818F5F808361E070E064
:1031200080E090E00E94EB2C6B897C898F859889E8
:10313000F601408195010E94F70981E015C08F8951
:10314000988D83FF41C0877F988F8F8B6B897C8997
:10315000FE01E559FF4F9E0129593F4F8F85988900
:1031600040810E94C70982E08E8B2EC08F89988D86
:1031700085FF2AC08F7D988F8F8BCF5BDE4F1882A3
:1031800022961882C354D14081E08A8B83E0ECCF31
:103190008F89988D87FF16C08F77988F8F8B1A8AAB
:1031A0001E866B897C89FE01E559FF4F9E012759D8
:1031B0003F4F8E0109591F4F8F85988940810E948A
:1031C0006B0901C081FD1E8ADF91CF911F910F9184
:1031D000EF90DF90CF90BF90AF909F908F90089529
:1031E0008F929F92AF92BF92CF92DF92EF920F9306
:1031F0001F93CF93DF93EC018D89823009F46DC06A
:10320000833030F4882359F0813009F0A7C04EC0D4
:10321000833009F472C0843009F0A0C08BC08F895C
:10322000988D80FF9BC08E7F988F8F8B55E6852E63
:10323000912C8C0E9D1E43E6A42EB12CAC0EBD1E0F
:103240006B897C893BE6C32ED12CCC0EDD1E8F858D
:103250009889F601408194018501EE24E3940E944F
:10326000250A61E070E080E090E00E94EB2C6B8921
:103270007C898F859889F60140819401EE240E9413
:10328000250AF60180818F5F808361E070E080E035
:1032900090E00E94EB2C6B897C898F859889F601E0
:1032A000408195010E94F70981E015C08F89988DB2
:1032B00082FF54C08B7F988F8F8B6B897C89FE0136
:1032C000E559FF4F9E012D593F4F8F8598894081C9
:1032D0000E94C70982E08D8B41C08F89988D84FF41
:1032E0003DC08F7E988F8F8BCE5BDE4F81E08883D1
:1032F000C254D140898B83E0EECF8F89988D86FFB1
:1033000016C08F7B988F8F8B198A6B897C89FE0101
:10331000E559FF4F9E012B593F4F8E010D591F4F0D
:103320008F85988940810E946B091D8A17C080FF94
:1033300015C013C08F89988D90FF10C01A8A198A02
:103340006B897C898F8598890E949D068FEF9FEFFE
:103350009C8B8B8B188E1F8A1D8A1E8ADF91CF91C2
:103360001F910F91EF90DF90CF90BF90AF909F9003
:103370008F9008950F931F93CF93DF93EC018C01EF
:103380000A581F4FF8018081882309F10E94B72C49
:10339000CE58DF4F288139814A815B81C257D040A6
:1033A000621B730B840B950B6536710581059105C6
:1033B00070F0C958DF4F1882C757D040F80110820B
:1033C00081E08E87C05CDE4F1882C054D140CE01B0
:1033D0000E942E16DF91CF911F910F9108952F9289
:1033E0003F924F925F926F927F928F929F92AF9295
:1033F000BF92CF92DF92EF92FF920F931F93DF93D2
:10340000CF93CDB7DEB72A970FB6F894DEBF0FBEC5
:10341000CDBF9A8789877A836983DC011E968C9158
:103420001E978823A9F5FB018085823089F5958553
:1034300080E0248530E0282B392B2130310591F4B0
:103440001F96ED91FC9150978681882359F481E075
:1034500086838289938954969C938E93539755962D
:103460001C9216C02330310599F4A985BA851F96A0
:10347000ED91FC9150978781882351F481E08783F7
:103480008289938954969C938E93539756961C9257
:10349000E981FA81918180E0208130E0822B932BB9
:1034A000A985BA8553966D917C9154979B013062A2
:1034B0008217930709F0D8C446815781952F80E081
:1034C000242F30E0822B932B019709F09EC1808539
:1034D000813009F4C1C48230D1F5958580E024851E
:1034E00030E0282B392B2130310599F4A559BF4FF5
:1034F00081858C93189786858D9387858C93A456A8
:10350000B040BA87A98757968D919C915897816052
:1035100034C12330310509F09FC4E985FA85E559A6
:10352000FF4FA981BA8119968C911997808334979E
:103530001E968C911E9781931F968C918083E856DE
:10354000F040FA87E9878789908D826042C1853093
:1035500009F046C0E981FA81918980E0208930E054
:10356000822B932B892B09F077C4248549855A85B2
:103570004B595F4FDA018C91A556B040BA87A987A5
:10358000281781F4AA59BF4F95858C91A656B04053
:10359000BA87A987981731F457968D919C915897BF
:1035A0008061EBC0E985FA85E759FF4F8081E956D4
:1035B000F040FA87E987281709F04EC4E659FF4F13
:1035C000A981BA811D969C918081EA56F040FA87C4
:1035D000E987981709F040C48789908D8062F9C007
:1035E000843009F04FC0E981FA81248549855A85E4
:1035F0004B595F4FDA018C91A556B040BA87A98725
:103600002817C1F4AA59BF4F95858C91A656B04092
:10361000BA87A987981771F4A559BF4F81858C93F4
:10362000AB56B040BA87A98757968D919C91589711
:103630008460A3C0E985FA85E759FF4F8081E95688
:10364000F040FA87E987281709F006C4E659FF4FCA
:10365000A981BA811D969C911D978081EA56F04000
:10366000FA87E987981709F0F7C3E559FF4F1996CC
:103670008C918083EB56F040FA87E9878789908D9B
:103680008860A7C0863009F04FC0E981FA8124859F
:1036900049855A854B595F4FDA018C91A556B04048
:1036A000BA87A9872817C1F4AA59BF4F95858C916D
:1036B000A656B040BA87A987981771F4A559BF4F8D
:1036C00081858C93AB56B040BA87A98757968D9168
:1036D0009C915897806451C0E985FA85E759FF4F5E
:1036E0008081E956F040FA87E987281709F0B4C3CA
:1036F000E659FF4FA981BA811D969C911D97808143
:10370000EA56F040FA87E987981709F0A5C3E5590A
:10371000FF4F19968C918083EB56F040FA87E9872A
:103720008789908D806855C0873009F055C0E98140
:10373000FA81248549855A854D595F4FDA018C916C
:10374000A356B040BA87A9872817E1F4AC59BF4FF8
:1037500095858C91A456B040BA87A987981791F4A3
:10376000A559BF4F81858C93AB56B040BA87A987C6
:1037700057968D919C915897916058969C938E93F3
:1037800057976AC3E985FA85E959FF4F8081E75663
:10379000F040FA87E987281709F05EC3E859FF4F20
:1037A000A981BA811D969C911D978081E856F040B1
:1037B000FA87E987981709F04FC3E559FF4F199623
:1037C0008C918083EB56F040FA87E9878789908D4A
:1037D0009160908F878B40C38A3009F03DC3E981A7
:1037E000FA81418529853A8525593F4FD9014C9366
:1037F000AB56B040BA87A9871F968D919C91509780
:10380000248505850E94490927C3E985FA85EB5976
:10381000FF4F8081E556F040FA87E987481709F0A5
:103820005EC0EA59FF4F8081E656F040FA87E9878B
:10383000581709F054C0A981BA8118968C9118972D
:10384000863009F009C350969C91509780E05196BC
:103850002C9130E0282B392BB1E121303B07B9F016
:103860002115310569F4E981FA81928980E0238983
:1038700030E0282B392BF1E121303F0729F407C034
:103880002050314021F022C020503140F9F4098508
:103890001A850E5B1E4FD8018C91882359F08985BB
:1038A0009A85E981FA81618542850E94DA17D801FB
:1038B0001C92D2C289859A85E981FA816185428507
:1038C0000E94A01781E0D8018C93C6C289859A8591
:1038D000E981FA81618542850E942918BDC2298546
:1038E0003A8527593F4FD9018C91A956B040BA87E4
:1038F000A987481709F0B0C2A659BF4F8C91AA56A4
:10390000B040BA87A987581709F0A6C289809A8063
:10391000E8E0F0E08E0E9F1EA459BF4FBA87A9873A
:10392000A981BA8118969C911897987FE985FA85A4
:103930009083329618968C9118978470819318967C
:103940008C9118978270819319968C9119978F7E1C
:10395000819319968C9180718083E157F040FA87AA
:10396000E987992339F0E359FF4F9083ED56F040F2
:10397000FA87E98729853A8520593F4FD9018C91EB
:10398000A057B040BA87A987833419F51E961C92B8
:103990001E97FD01E459FF4FA259BF4F29853A8573
:1039A00021593F4F01E7E02EF12C49855A85E40E5D
:1039B000F51E19E5C12ED12CC40ED51ECA01608199
:1039C0004C91D9012C9103E6F701E080AA240E94D2
:1039D0004617A985BA851E968C911E97FD01E05960
:1039E000FF4F882309F4B4C080818F3E09F034C2B0
:1039F000FD01E459FF4FA359BF4F60818C91AD5633
:103A0000B040BA87A9876817E9F5E981FA81E284AD
:103A1000E694848184508E19082F10E0E00FF11F86
:103A2000EE0DF11DCD01B40143850E94AB15882335
:103A300009F412C2D8011B9629813A81A20FB31F43
:103A400090E029853A852F5B3E4F12C0F9018081B5
:103A5000E82FF0E0E90FF11DE436F10558F449854F
:103A60005A85E40FF51FE858FF4F8D9180839F5FC3
:103A70009E1560F3E985FA85EF5BFE4F8081980F14
:103A80009083EAC1A981BA811B968C91833999F5FB
:103A9000A9E5CA2ED12CE985FA85CE0EDF1E81E973
:103AA000D6018C93E65AFF4FFA87E987E981FA81BC
:103AB0008485A985BA858D9385858D9386858D931B
:103AC00087858D9380898D9381898D9382898D934C
:103AD00083898D9384898C93A256B040BA87A98735
:103AE000FD01E259FF4FAF58BF4F89859A8540814C
:103AF00020E00FEE93C0833E09F0AEC1F9E5CF2E72
:103B0000D12CE985FA85CE0EDF1E81EED6018C938D
:103B1000E65AFF4F85E08193FA87E987E981FA81C8
:103B20008585A985BA858D9386858C93AC55B040E3
:103B3000BA87A987FD01E259FF4FAF58BF4F89856A
:103B40009A85408120E00FEEEC90E4E0AE2E24C098
:103B500080818F3221F5E985FA85E459FF4FA985E7
:103B6000BA85A259BF4F29853A8521593F4F71E740
:103B7000E72EF12C49855A85E40EF51E69E5C62E1F
:103B8000D12CC40ED51ECA0160814C91D9012C9153
:103B900003E6F701E080AA240E9446175DC18F3E2C
:103BA00009F05AC1A981BA811B96BC90B3E8BB1633
:103BB000C9F559E5C52ED12CE985FA85CE0EDF1E53
:103BC00081E8D6018C93E65AFF4FFA87E987E981AD
:103BD000FA818485A985BA858D9385858D9380EE3C
:103BE0008D931D921D9282E38D931D921D921C92C6
:103BF000A256B040BA87A987FD01E459FF4FA259E8
:103C0000BF4F41E7E42EF12C29853A85E20EF31EE1
:103C1000C90160814C9120E00FEED701EC903AE0B1
:103C2000A32EBACFB3EEBB1609F065C029E5822EEC
:103C3000912CE985FA858E0E9F1E81EED4018C931E
:103C4000E65AFF4FFC83EB8315E01083E985FA8584
:103C5000E55AFF4FFE83ED83A981BA811D968C91B1
:103C60001D9780839CE5292E312CE985FA852E0E3F
:103C70003F1E1E968C91D1018C938CE6682E712C80
:103C80006E0E7F1E0EE6402E512C4E0E5F1EEF581C
:103C9000FF4FF887EF8389859A85F3016081D20110
:103CA0004C9120E00FEEEF81F885E0806401B4E0F4
:103CB000AB2E0E94461761E070E080E090E00E9429
:103CC000EB2CD401BC92EB81FC811083A981BA81D9
:103CD0001D968C91ED81FE8180838DE8D1018C93BE
:103CE00089859A85F3016081D2014C9120E0EF81B2
:103CF000F885E08051CFF1EEBF1671F5A7E7AA2E47
:103D0000B12C29853A85A20EB31ED5018C9188234A
:103D100009F0A2C0C90123593F4FF90160813196D2
:103D2000FA87E987408120E00FEEF0E1EF2EE4E62C
:103D3000CE2E0E94D31611E0D5011C930E94B72C01
:103D4000E985FA853496DF016D937D938D939D937C
:103D50001C93A657B0407EC0E981FA8182858130EC
:103D600009F47AC0F3E9BF1609F076C0A985BA85CF
:103D7000A75ABF4F81E98C9329853A85265A3F4F30
:103D8000E981FA818485F9018193FA87E987E981DC
:103D9000FA818585E985FA858193FA87E987E98142
:103DA000FA818685E985FA858193FA87E987E98131
:103DB000FA818785E985FA858193FA87E987E98120
:103DC000FA818089E985FA858193FA87E987E98113
:103DD000FA818189E985FA858193FA87E987E98102
:103DE000FA818289E985FA858193FA87E987E981F1
:103DF000FA818389E985FA858193FA87E987E981E0
:103E0000FA818489E985FA858083E256F040CF0102
:103E1000E459FF4F60813296408120E00FEE3396E7
:103E2000FA87E987E0806D017AE0A72E0E944617A5
:103E300029853A852B5F3F4FD9011D921C92A757C8
:103E4000B04081E01E968C931E97A05CBE4F1C92E2
:103E5000A054B140BA87A98789859A850E94F01835
:103E600089859A850E943F182A960FB6F894DEBF7E
:103E70000FBECDBFCF91DF911F910F91FF90EF90BB
:103E8000DF90CF90BF90AF909F908F907F906F907A
:103E90005F904F903F902F9008950F931F93CF9373
:103EA000DF93EC011E868A89882369F06B897C89FF
:103EB0009E0129593F4F8E0107591F4F8F859889C1
:103EC0004AE00E9499098A89882349F089898823D0
:103ED00031F061E070E080E090E00E94EB2C898995
:103EE000882369F06B897C899E012D593F4F8E0193
:103EF0000B591F4F8F8598894BE00E94990984E0E8
:103F00008D8BDF91CF911F910F910895FC018DEE64
:103F100091E091838083158281E0818712869F01E1
:103F20002E5F3F4F108637832683128288E083837B
:103F30008CE38483DF0181E091E01D961C921D9744
:103F40001E969C931E971F961C921F971C963C933F
:103F50002E931B978F5F1596803179F71582089500
:103F60000F931F938C010E94861F81E18093BF04F1
:103F70000A581F4FF80110821F910F910895AC014C
:103F8000662321F49C012A5F3F4F14C0FC0121E00D
:103F90008585861739F02F5F35962031C9F720E0E7
:103FA00030E008C085E0289F900111242A5F3F4F30
:103FB000240F351FC90108950F931F93CF93DF93EB
:103FC000162F042FE9012115310511F488ED0CC0DD
:103FD0000E94BF1FFC01009711F486ED05C01283FB
:103FE000D183C083038380E0DF91CF911F910F9134
:103FF00008951F93142F0E94BF1FDC01009781F0CA
:10400000ED91FC911197309769F013969C9120E007
:1040100005C08081811731F033962F5F2917C8F3CF
:10402000E0E0F0E0CF011F910895AF92BF92CF92F0
:10403000DF92EF92FF920F931F93CF93DF93EC01E8
:10404000D62EC42E790158010E94BF1F8C01009703
:1040500011F486ED4CC0DC018D919C91892B11F4FB
:1040600087ED45C0CE016D2D4C2D0E94F91FFC013E
:10407000D7018D939C93009711F48BED38C022816A
:1040800026952695822F90E040971CF080E090E8DE
:104090000BC081E090E0A0E0B0E004C0880F991F61
:1040A000AA1FBB1F2A95D2F70197F5019183808340
:1040B000FC2EED2ECE0160EE4D2D0E942401CE018E
:1040C00068ED0E943001982FD80114968C918823B6
:1040D00031F0CA58DF4F48814260492B02C0492F56
:1040E000497F8F2D9E2D68ED0E94240180E0DF9195
:1040F000CF911F910F91FF90EF90DF90CF90BF90E5
:10410000AF900895DF93CF930F92CDB7DEB7DC0168
:104110006983362F67FD69C0283008F066C04423E4
:1041200019F4FD0191E006C015968C911597873022
:10413000C1F75BC08585882329F09F5F3596903154
:10414000C9F753C0332379F5292F30E0442399F080
:10415000F901EE0FFF1FEE0FFF1FE20FF31FEA0F33
:10416000FB1F81E4808715968C9115978F5F1596BC
:104170008C9315970BC0F901EE0FFF1FEE0FFF1F79
:10418000E20FF31FEA0FFB1F81E08087892F90E089
:10419000FC01EE0FFF1FEE0FFF1FE80FF91FEA0FE4
:1041A000FB1F208523C039813770330F330F330F46
:1041B000442361F015968C9115978F5F15968C931B
:1041C00015978770232F2064282B02C02770232B7C
:1041D000892F90E0FC01EE0FFF1FEE0FFF1FE80F8D
:1041E000F91FEA0FFB1F208701C020E0822F0F90EC
:1041F000CF91DF9108951F93CF93DF93EC0168EC8B
:104200000E94300185FD02C010E038C0CE0168EF89
:104210000E943001807C803489F0813418F4882336
:1042200029F12BC0803819F0803C39F51BC0CE0134
:1042300068ED0E94300181FD07C00DC0CE0168ED20
:104240000E94300181FD07C0CE0168ED4BEC0E9459
:10425000240183E008C0CE0168ED49EC0E942401EE
:1042600082E001C081E08093BE0407C0CE0168ED0A
:1042700041ED0E9424011092BE0410E2CE0168ECD0
:10428000412F0E942401812FDF91CF911F9108952A
:10429000CF92DF92EF92FF920F931F93CF93DF9312
:1042A0008C01662309F44EC0C62EDD24E601CC0F36
:1042B000DD1FCC0FDD1FCC0DDD1D2896C80FD91FCB
:1042C000888186FF26C0FF24F394E5E0EE2E9881D6
:1042D0008F2D81508F3010F0FF24F39497700DC014
:1042E000FE9CF0011124E00FF11F808586958695D4
:1042F00086958770891729F0F3948FE08F1580F7E2
:104300001AC0C8016F2D0E944821E1CF9150F801D9
:104310009583F601EE0FFF1FEE0FFF1FEC0DFD1D45
:10432000E00FF11F108681E0818712860E5F1F4F1C
:104330001783068307C0F8019581888187709817D5
:1043400041F7E4CFDF91CF911F910F91FF90EF9054
:10435000DF90CF900895DC01962F613491F49D0198
:104360002E5F3F4FFD0181E091E01586968717860D
:10437000348723878F5F35968031B9F715961C9265
:104380000895FD0161E08585891729F06F5F3596F5
:104390006031C9F760E0CD010E94482108959F92E5
:1043A000AF92BF92CF92DF92EF92FF920F931F9343
:1043B000CF93DF936C01E42EA22E902EBB24C62F48
:1043C000D0E0AB96CC0FDD1FC80FD91F042F10E033
:1043D000055D1F4F000F111F080F191FE881F9819C
:1043E000A081B18112960D90BC91A02DCF016E2DB0
:1043F0004A2D292DFD010995F82E80EEF816E1F4DD
:10440000EE2061F4C60168EE41E00E94240166E6F8
:1044100070E080E090E00E94EB2C18C0D801ED9194
:10442000FC91A081B1811A962D913C911B97CF01EF
:104430006A2DF90109950AC0BDE0FB1629F482E056
:104440008B1508F441C016C0FF20F1F5E881F98111
:10445000A081B1810D90BC91A02DCF016E2D4A2D70
:10446000292DFD010995F82EADE08A1759F4B2E027
:10447000BB1550F064E670E080E090E00E94EB2C09
:10448000B394ACCF882301F1EE2061F4C60168EE4D
:1044900041E00E94240166E670E080E090E00E9426
:1044A000EB2C12C0EE2DF0E0BB96EE0FFF1FEC0DD3
:1044B000FD1DA081B181ED91FC9111970284F385DE
:1044C000E02DCD016A2D09958F2DDF91CF911F91A0
:1044D0000F91FF90EF90DF90CF90BF90AF909F90A3
:1044E00008956F927F928F929F92AF92BF92CF92D8
:1044F000DF92EF92FF920F931F93CF93DF935C01B4
:10450000162F842E39010E94B72C6B017C0180E1AB
:1045100097E2A0E0B0E0C80ED91EEA1EFB1E992467
:10452000C0E0D0E000E0812A30C0C50160EF482D36
:104530000E9424010CC0C50168EC0E94300187FF75
:1045400006C0C50168EC40E80E94240107C00E9433
:10455000B72C6C157D058E059F0568F3C50168EFC6
:104560000E943001082F0F70043019F00E30A1F4B2
:1045700008C021966114710441F0C615D70529F4CD
:104580000BC0939493E0991639F00E94B72C6C15E8
:104590007D058E059F0548F2802FDF91CF911F91F9
:1045A0000F91FF90EF90DF90CF90BF90AF909F90D2
:1045B0008F907F906F9008952F923F924F925F92CD
:1045C0006F927F928F929F92AF92BF92CF92DF9223
:1045D000EF92FF920F931F93CF93DF93F82EE92E64
:1045E000EB013A0169014801F901A080B1804980DD
:1045F000118210828A8181FD02C040E101C040E247
:104600008F2D9E2D68EE0E94240141E0242E312C36
:104610005A2C8F2D9E2D60E0488193010E947122BB
:10462000082F8630F1F48F2D9E2D68EF0E94300107
:1046300090E035E0969587953A95E1F782259325A8
:104640008170880F2A812D7F282B2A8321FD02C0AB
:1046500040E101C040E28F2D9E2D68EE0E942401B2
:10466000D8CF882309F05EC08F2D9E2D68EC0E9464
:10467000300182FD02C000EF55C08F2D9E2D60E3FA
:104680000E943001182F90E0A816B90608F4152DE5
:10469000F601808191812A98F8E0FEBD0DB407FEF5
:1046A000FDCF212F30E0A501481B590BCA0157FF50
:1046B00002C080E090E0821793070CF49C01922FD7
:1046C000F40107C01EBC0DB407FEFDCF91508EB59E
:1046D00081939923B9F7820E911C2A9A8F2D9E2DD2
:1046E00068EC44E00E942401F60180819181810FF1
:1046F000911D91838083141520F08A159B0508F481
:1047000088CF8F2D9E2D68EF0E94300190E024E02D
:10471000969587952A95E1F78170880F2A812D7FDC
:10472000282B2A83802FDF91CF911F910F91FF902B
:10473000EF90DF90CF90BF90AF909F908F907F9041
:104740006F905F904F903F902F900895AF92BF92DF
:10475000CF92DF92EF92FF920F931F93DF93CF934D
:1047600000D000D0CDB7DEB77C01690158011A82B4
:1047700019821C821B829E012F5F3F4F8E010D5FAD
:104780001F4F0E941520882349F469817A814B814B
:104790005C81C701960185010E94DC220F900F9079
:1047A0000F900F90CF91DF911F910F91FF90EF909D
:1047B000DF90CF90BF90AF9008952F923F924F928D
:1047C0005F926F927F928F929F92AF92BF92CF92A1
:1047D000DF92EF92FF920F931F93DF93CF93CDB7AA
:1047E000DEB727970FB6F894DEBF0FBECDBFF82E09
:1047F000E92E7F836E835B834A83C22E732EDB0197
:104800001196DC908D2D8150803410F01AEDF1C09E
:104810000E94B72C4B015C0180E197E2A0E0B0E080
:10482000880E991EAA1EBB1EAE81BF8112968C9166
:1048300080FD02C040E401C040E88F2D9E2D68EE4F
:104840000E94240118012C2D372DC9012C0110E0E4
:10485000ED2DF0E0FD83EC83B6C032012C813D816B
:104860002415350508F4390169822A9832E13EBDE4
:10487000962DF10106C00DB407FEFDCF81918EBDCE
:1048800091509923C1F70DB407FEFDCF2A9A8F2DC1
:104890009E2D68E349810E942401AE81BF814C9125
:1048A00040628F2D9E2D60EF0E9424018F2D9E2D42
:1048B00068EC0E94300187FFF9CF8F2D9E2D68ECA8
:1048C00040E80E9424018F2D9E2D68EF0E94300148
:1048D000182F1F7000E0CC24DD2462C00894C11C96
:1048E000D11CEA81FB81309759F1CE16DF0641F5E4
:1048F0006EC00F5F033021F56AC08F2D9E2D68EFCB
:104900000E94300190E065E0969587956A95E1F701
:1049100021E030E0822793278170AE81BF8112961B
:104920002C9112972E7F282B12962C9320FD02C0DB
:1049300040E401C040E88F2D9E2D68EE0E942401C6
:104940008F2D9E2D68E340E00E9424018F2D9E2D27
:1049500060E1F10140810E9424018F2D9E2D68E3CA
:1049600049810E942401AE81BF814C9140628F2D0C
:104970009E2D60EF0E9424018F2D9E2D68EC0E94D9
:10498000300187FFF9CF8F2D9E2D68EC40E80E9403
:1049900024018F2D9E2D68EF0E943001182F1F706B
:1049A000112309F440C00E94B72C681579058A05C7
:1049B0009B05C8F5163009F4A0CF1E3009F499CF35
:1049C000143029F48BCF4114510409F046CF8F2DB8
:1049D0009E2D68EF0E94300190E055E096958795F6
:1049E0005A95E1F78170EE81FF8122812E7F282B7D
:1049F0002283812F27960FB6F894DEBF0FBECDBF5E
:104A0000CF91DF911F910F91FF90EF90DF90CF90AA
:104A1000BF90AF909F908F907F906F905F904F90DE
:104A20003F902F90089546185708260C371CCBCF7F
:104A3000AF92BF92CF92DF92EF92FF920F931F93AC
:104A4000DF93CF9300D000D0CDB7DEB77C016901F2
:104A500058011A8219821C821B829E012F5F3F4FD0
:104A60008E010D5F1F4F0E941520882349F4698134
:104A70007A814B815C81C701960185010E94DD230B
:104A80000F900F900F900F90CF91DF911F910F918A
:104A9000FF90EF90DF90CF90BF90AF9008952F924E
:104AA0003F924F925F926F927F928F929F92AF92BE
:104AB000BF92CF92DF92EF92FF920F931F93DF93FB
:104AC000CF93CDB7DEB762970FB6F894DEBF0FBEB7
:104AD000CDBF3C01498B2A8B502E4C2CC9A4DAA4A3
:104AE0002BA43CA41A8219821C821B829E012F5F78
:104AF0003F4F8E010D5F1F4F0E941520F82E882317
:104B000009F0AEC02A8929875A86EB864C86BE8674
:104B1000AD86988A8F862A9882E28EBDFE013996EC
:104B20009E012F5E3F4F05C00DB407FEFDCF819162
:104B30008EBDE217F307C1F70DB407FEFDCF2A9A29
:104B40002B813C81C30160E149890E947122F82ECA
:104B5000882309F085C0EE243A8937FF02C0EE248D
:104B6000E394C114D10409F46FC0E981FA81EE2005
:104B700009F45BC08281826082835401E1E04E2EA1
:104B8000512C4EC08FA198A59E838D8369817A8117
:104B90004B815C81C3019E012B5F3F4F86010E94C8
:104BA000DC22F82E96E08917C9F409811A81C30125
:104BB00068EF0E94300190E075E0969587957A95B0
:104BC000E1F7842595258170880FD80112962C91E4
:104BD00012972D7F282B12962C9322C0882309F040
:104BE0003FC02114310499F0D101ED91FC91019065
:104BF000F081E02D6D817E81C4018A199B0998871F
:104C00008F83C101A6019E01295F3F4F09958D81C8
:104C10009E81EFA1F8A58E179F07D0F0A81AB90AB8
:104C2000A114B10409F0AECF0DC0828181608283EE
:104C30004B815C81C301BF012FA138A586010E9471
:104C4000DD23F82EFF2061F4EE2011F460E801C0AE
:104C500060EA2B813C81C30149890E947122F82EB0
:104C60008F2D62960FB6F894DEBF0FBECDBFCF91E9
:104C7000DF911F910F91FF90EF90DF90CF90BF9049
:104C8000AF909F908F907F906F905F904F903F90EC
:104C90002F9008958F929F92AF92BF92CF92EF92F2
:104CA0000F93E22E00D000D000D0EDB7FEB73196C2
:104CB000ADB7BEB712961C921E9211971382128244
:104CC0001582148220E009E0CC24AA24BB24882485
:104CD00099240E944F252DB73EB72A5F3F4F0FB64C
:104CE000F8943EBF0FBE2DBF0F91EF90CF90BF90B5
:104CF000AF909F908F9008958F929F92AF92BF92A6
:104D0000CF92EF920F93E22E00D000D000D0EDB7FB
:104D1000FEB73196ADB7BEB712961C921E92119790
:104D2000138212821582148220E005E0CC24AA248A
:104D3000BB24882499240E944F252DB73EB72A5FB3
:104D40003F4F0FB6F8943EBF0FBE2DBF0F91EF90AF
:104D5000CF90BF90AF909F908F900895DF92EF9289
:104D6000FF920F931F93F82EE92E162F042FD22EA9
:104D700060E00E94BF1FFC01009761F1808191817A
:104D8000892B11F417ED27C0D4828F2D9E2D612F12
:104D900040E0202F0E948220082F882311F414ED78
:104DA0001AC08F2D9E2D602F0E94BF1FFC010097FF
:104DB00089F0D4828F2D9E2D60E040E0202F0E944C
:104DC0007C26182F882339F08F2D9E2D602F0E946E
:104DD000AB2101C016ED812F1F910F91FF90EF9035
:104DE000DF9008958F929F92AF92BF92CF92EF92F1
:104DF000FF920F934901302F00D000D000D0EDB7C3
:104E0000FEB73196ADB7BEB712969C928E921197AF
:104E1000F382E2821582148220E806E0E32EA2E00B
:104E2000CA2EAA24BB240E944F252DB73EB72A5F65
:104E30003F4F0FB6F8943EBF0FBE2DBF0F91FF90AE
:104E4000EF90CF90BF90AF909F908F9008953F923A
:104E50004F925F926F927F928F929F92AF92BF928A
:104E6000CF92DF92EF92FF920F931F93DF93CF9336
:104E7000CDB7DEB7C054D0400FB6F894DEBF0FBE3A
:104E8000CDBF5C01562E442E322E380129E030E091
:104E9000032D6E010894C11CD11C76010E94F226DC
:104EA000882349F500D000D000D0EDB7FEB7319689
:104EB0008B809C8080E490E0ADB7BEB712969C9347
:104EC0008E931197D382C28275826482C501652D4B
:104ED000442D20E806E0E32CB2E0CB2EAA24BB242C
:104EE0000E944F252DB73EB72A5F3F4F0FB6F8946B
:104EF0003EBF0FBE2DBFC05CDF4F0FB6F894DEBFC4
:104F00000FBECDBFCF91DF911F910F91FF90EF901A
:104F1000DF90CF90BF90AF909F908F907F906F90D9
:104F20005F904F903F9008958F929F92AF92BF9263
:104F3000CF92EF920F931F93490100D000D000D081
:104F4000EDB7FEB73196ADB7BEB712963C932E9330
:104F50001197138302831582148220E806E0EE2461
:104F6000CC24C394AA24BB240E944F252DB73EB75E
:104F70002A5F3F4F0FB6F8943EBF0FBE2DBF1F9163
:104F80000F91EF90CF90BF90AF909F908F9008952A
:104F90002F923F924F925F926F927F928F929F9249
:104FA000AF92BF92CF92DF92EF92FF920F931F9337
:104FB000DF93CF93CDB7DEB765970FB6F894DEBF1A
:104FC0000FBECDBF4C01662E342E722E198288E0A2
:104FD0008A838CE38B83D401ED91FC910190F08165
:104FE000E02DC40160E009956C01009711F486ED95
:104FF000A6C0FC01E080F180CE0101969183808300
:10500000748204E0A02EB12CAC0EBD1EC40160E081
:1050100040E022E130E085010E949427D601ED9224
:10502000FC92882309F08BC0F50140845184E2840E
:10503000F384248016E5A12EB12CA80CB91C6501BF
:1050400010E0F601A081B181109799F1ED91FC91EA
:1050500011970084F185E02DCD010995882349F54C
:10506000D601ED91FC91A081B1811C962D913C91CE
:105070001D97CF01B201A701F9010995882379F4A1
:10508000D601ED91FC91A081B1811E962D913C91AC
:105090001F97CF01622DF9010995882351F0C401B2
:1050A000612F462D232D072D0E94CF21813D09F030
:1050B00046C01F5FE2E0F0E0CE0EDF1E103109F6C1
:1050C00010E0F501A081B181109761F1ED91FC91A3
:1050D00011970084F185E02DCD010995882311F504
:1050E000D501ED91FC91A081B1811C962D913C914F
:1050F0001D97CF01B201A701F9010995882391F409
:10510000D501ED91FC91A081B1811E962D913C912C
:105110001F97CF01622DF9010995882319F428C042
:10512000893D69F41F5FE2E0F0E0AE0EBF1E103172
:1051300041F6C401662D432D272D0E94AE266596AB
:105140000FB6F894DEBF0FBECDBFCF91DF911F9198
:105150000F91FF90EF90DF90CF90BF90AF909F9016
:105160008F907F906F905F904F903F902F90089519
:10517000C401612F462D232D072D0E94CF21813D93
:1051800079F6D0CF9F92AF92BF92CF92DF92EF92FB
:10519000FF920F931F93CF93DF936C01A82E9D2C4A
:1051A000199902C00E94FB208091BE04813049F011
:1051B000813048F0823019F0833039F50DC0BB24BE
:1051C0000DC083E106C08091BF04807F8031E9F08B
:1051D00081E18093BF0419C0BB24B3948091BF04C4
:1051E000807F803199F40E94B72C68537F4F8F4F96
:1051F0009F4F6093C1047093C2048093C304909343
:10520000C40480E28093BF0401C0BB2486E5E82E7D
:10521000F12CEC0CFD1CE70110E0A881B98110977E
:1052200041F0ED91FC9111970680F781E02DCD01C1
:1052300009951F5F2296103181F78091BF04803459
:1052400009F44CC0813440F4803269F18033F1F1CB
:10525000813109F094C00AC0813509F46DC08038ED
:1052600009F47CC0803509F08AC04DC086E790E023
:10527000C80ED91EF601108210E0F701A081B1819D
:10528000109741F0ED91FC9111970480F581E02D8C
:10529000CD0109951F5F82E090E0E80EF91E103104
:1052A00061F782E16AC0E090C104F090C20400910D
:1052B000C3041091C4040E94B72CE616F706080731
:1052C000190708F05CC080E38093BF048A2D992DF4
:1052D00068EE41E00E94240180E44FC08A2D992DA0
:1052E00068EE0E94300180FD4AC08A2D992D68ED3C
:1052F0000E943001482F48608A2D992D68ED0E9448
:10530000240180E53AC08A2D992D68EC0E94300175
:1053100086FF35C081E58093BF040E94B72C6C5E88
:105320007F4F8F4F9F4F6093C1047093C20480934F
:10533000C3049093C40423C0E090C104F090C2045D
:105340000091C3041091C4040E94B72CE616F7061E
:1053500008071907A0F480E88093BF04C60160E045
:1053600040E02B2D0E94C827882331F0823D39F080
:105370008093C00480EA01C080E98093BF04DF917C
:10538000CF911F910F91FF90EF90DF90CF90BF9042
:10539000AF909F90089508951F920F920FB60F92AD
:1053A00011242F933F934F938F939F93EF93FF93EA
:1053B0008091C00082FD1DC04091C600209105056E
:1053C000309106052F5F3F4F2F7330708091070596
:1053D000909108052817390771F0E0910505F091C3
:1053E0000605EB53FB4F40833093060520930505DC
:1053F00002C08091C600FF91EF919F918F914F91D4
:105400003F912F910F900FBE0F901F901895E09134
:105410005905F0915A05E05CFF4F819191912081EF
:105420003181821B930B8F739070892B11F00E9436
:10543000CB2908951F920F920FB60F9211242F932C
:105440003F938F939F93EF93FF9320914905309162
:105450004A0580914B0590914C052817390731F486
:105460008091C1008F7D8093C10014C0E0914B05F5
:10547000F0914C05E75FFA4F208180914B059091A8
:105480004C0501968F73907090934C0580934B055B
:105490002093C600FF91EF919F918F913F912F91A3
:1054A0000F900FBE0F901F901895AF92BF92DF9292
:1054B000EF92FF920F931F93CF93DF93EC017A014A
:1054C0008B01DD24403081EE580780E0680780E0E2
:1054D000780711F0DD24D39491E0A92EB12CEC894A
:1054E000FD89DD2069F0C50108A002C0880F991F61
:1054F0000A94E2F7808360E079E08DE390E005C0F4
:10550000108260E874E88EE190E0A80197010E94A3
:10551000EB2D2150304040405040569547953795EF
:10552000279580E12030380720F0DD2011F0DD24C0
:10553000D6CFE889F9893083EA89FB89208319A2CB
:10554000EE89FF89408121E030E0C9010C8C02C066
:10555000880F991F0A94E2F7482B4083EE89FF8950
:105560004081C9010D8C02C0880F991F0A94E2F78F
:10557000482B4083EE89FF894081C9010E8C02C00F
:10558000880F991F0A94E2F7482B4083EE89FF8920
:1055900080810F8C02C0220F331F0A94E2F72095FE
:1055A00028232083DF91CF911F910F91FF90EF90DF
:1055B000DF90BF90AF900895DC011C96ED91FC91B7
:1055C0001D97E05CFF4F2191319180819181281BD3
:1055D000390B2F733070C9010895DC011C96ED91D1
:1055E000FC911D97E05CFF4F20813181E054F04039
:1055F000DF01AE5BBF4F8D919C9111972817390742
:1056000019F42FEF3FEF07C08D919C91E80FF91F20
:105610008081282F30E0C9010895DC011C96ED91AE
:10562000FC911D97E05CFF4F20813181E054F040F8
:10563000DF01AE5BBF4F8D919C9111972817390701
:1056400019F42FEF3FEF10C08D919C911197E80F47
:10565000F91F20818D919C91119701968F73907005
:1056600011969C938E9330E0C9010895DC019196C8
:105670008C919197882339F05496ED91FC91559730
:10568000808186FFF9CF91961C920895CF93DF9386
:10569000EC01EE85FF85E05CFF4F20813181E05415
:1056A000F0402F5F3F4F2F733070DF01AE5BBF4F75
:1056B0008D919C91119728173907D1F3E05CFF4F2A
:1056C00080819181E054F040E80FF91F6083EE85FE
:1056D000FF85E05CFF4F31832083EE89FF892081C5
:1056E00081E090E00F8C02C0880F991F0A94E2F7C6
:1056F000282B208381E089A3EC89FD898081806447
:10570000808381E090E0DF91CF9108951092500561
:1057100010924F0588EE93E0A0E0B0E08093510531
:1057200090935205A0935305B093540587EF91E0F1
:1057300090934E0580934D0585EC94E090935A0527
:105740008093590589E095E090935C0580935B0513
:1057500085EC90E090935E0580935D0584EC90E08D
:105760009093600580935F0580EC90E090936205D4
:105770008093610581EC90E09093640580936305CC
:1057800082EC90E0909366058093650586EC90E04E
:10579000909368058093670584E08093690583E0B2
:1057A00080936A0587E080936B0585E080936C05A4
:1057B00081E080936D050895CF93DF930E94112DB2
:1057C0000E948703C7E0DAE20E94EF012097E1F32D
:1057D0000E94072AF9CFCF92DF92EF92FF920F93A8
:1057E0001F93CF93DF937C016B018A01C0E0D0E06F
:1057F0000FC0D6016D916D01D701ED91FC91019023
:10580000F081E02DC7010995C80FD91F0150104044
:105810000115110571F7CE01DF91CF911F910F9105
:10582000FF90EF90DF90CF900895DC01ED91FC9117
:105830000190F081E02D09950895EF92FF920F936A
:105840001F938C01DC01ED91FC910190F081E02D22
:105850006DE009957C01D801ED91FC910190F081FA
:10586000E02DC8016AE009959C012E0D3F1DC9017C
:105870001F910F91FF90EF900895CF93DF93EC016C
:105880006115710519F420E030E00FC0DB010D90C7
:105890000020E9F71197A61BB70BE881F981028078
:1058A000F381E02DAD0109959C01C901DF91CF91F4
:1058B00008950E943D2C0895EF92FF920F931F933D
:1058C0007C010E943D2C8C01C7010E941D2C080FF9
:1058D000191FC8011F910F91FF90EF9008951F921B
:1058E0000F920FB60F9211242F933F938F939F9394
:1058F000AF93BF938091730590917405A091750546
:10590000B0917605309177050196A11DB11D232F29
:105910002D5F2D3720F02D570196A11DB11D20932D
:1059200077058093730590937405A0937505B093E4
:10593000760580916F0590917005A0917105B091E9
:1059400072050196A11DB11D80936F05909370059E
:10595000A0937105B0937205BF91AF919F918F9104
:105960003F912F910F900FBE0F901F9018958FB7FA
:10597000F89420917305309174054091750550910C
:1059800076058FBFB901CA0108959FB7F894209199
:105990006F0530917005409171055091720586B583
:1059A000A89B06C08F3F21F02F5F3F4F4F4F5F4FA7
:1059B0009FBF542F432F322F2227280F311D411D07
:1059C000511D82E0220F331F441F551F8A95D1F7C6
:1059D000B901CA010895EF92FF920F931F93CF93DD
:1059E000DF937B018C010E94C52CEB010EC00E944D
:1059F000C52C6C1B7D0B685E7340C8F30894E108EE
:105A0000F10801091109C851DC4FE114F104010545
:105A1000110569F7DF91CF911F910F91FF90EF90E2
:105A20000895789484B5826084BD84B5816084BD16
:105A300085B5826085BD85B5816085BDEEE6F0E007
:105A4000808181608083E1E8F0E010828081826063
:105A50008083808181608083E0E8F0E080818160E4
:105A60008083E1EBF0E0808184608083E0EBF0E014
:105A7000808181608083EAE7F0E0808184608083B8
:105A80008081826080838081816080838081806862
:105A900080831092C1000895CF93DF93482F50E088
:105AA000CA0186569E4FFC0134914A575E4FFA0157
:105AB0008491882369F190E0880F991FFC01E859CF
:105AC000FE4FA591B491FC01EE58FE4FC591D491C3
:105AD000662351F42FB7F8948C91932F90958923D6
